:100000000C942A000C9447000C9447000C94470071
:100010000C9447000C9447000C9447000C94470044
:100020000C9447000C9447000C9447000C94470034
:100030000C9447000C9447000C9447000C94470024
:100040000C9447000C9447000C9447000C94470014
:100050000C94470011241FBECFE5D4E0DEBFCDBF16
:1000600012E0A0E6B0E0E6E0F5E102C005900D92F6
:10007000A83DB107D9F712E0A8EDB2E001C01D928A
:10008000AA3DB107E1F70E9401030C94810A0C9488
:100090000000CF93DF93CDB7DEB784E390E024E395
:1000A00030E0F90120812760FC0120838AE390E0A1
:1000B0002FEFFC01208386E00E9474018CE00E94F7
:1000C00074010E946A0061E081E00E94C302DF9136
:1000D000CF910895CF93DF93CDB7DEB780E30E9431
:1000E000740181E00E947401DF91CF910895CF9354
:1000F000DF93CDB7DEB769970FB6F894DEBF0FBEBA
:10010000CDBF898F0E94710285E390E025E330E046
:10011000F90120812160FC01208385E390E025E343
:1001200030E0F90120812D7FFC0120838BE390E0FA
:10013000298DFC01208385E390E025E330E0F9017F
:1001400020812460FC01208380E090E0A0E2B1E403
:1001500089839A83AB83BC832AEF3DEE4BE650E460
:1001600069817A818B819C810E945D07DC01CB01D2
:100170008D839E83AF83B88720E030E040E85FE363
:100180006D817E818F8198850E944C0688231CF4A6
:1001900081E0898791C020E030E04FE753E46D8132
:1001A0007E818F8198850E94590718160CF07BC0BC
:1001B00020E030E04AE754E469817A818B819C81B8
:1001C0000E945006DC01CB018A879B87AC87BD87E4
:1001D0002DEC3CEC4CE255E46A857B858C859D8555
:1001E0000E945D07DC01CB018E879F87A88BB98BAE
:1001F00020E030E040E85FE36E857F85888999895B
:100200000E944C0688232CF481E090E09B8B8A8B23
:100210003FC020E03FEF4FE757E46E857F85888938
:1002200099890E94590718164CF520E030E040E209
:1002300051E46A857B858C859D850E945D07DC0184
:10024000CB01BC01CD010E94B806DC01CB019B8B28
:100250008A8B0FC084E191E09D8B8C8B8C899D896A
:100260000197F1F79D8B8C8B8A899B8901979B8BDA
:100270008A8B8A899B89009769F724C06E857F8560
:10028000888999890E94B806DC01CB019B8B8A8BF7
:100290008A899B899F8B8E8B8E899F890197F1F725
:1002A0009F8B8E8B0FC06D817E818F8198850E9480
:1002B000B806DC01CB0189878985888F888D8A956E
:1002C000F1F7888F85E390E025E330E0F9012081A4
:1002D0002B7FFC01208369960FB6F894DEBF0FBE1A
:1002E000CDBFDF91CF910895CF93DF93CDB7DEB728
:1002F00069970FB6F894DEBF0FBECDBF898F0E94FD
:10030000710285E390E025E330E0F90120812E7F42
:10031000FC01208385E390E025E330E0F9012081B2
:100320002D7FFC0120838BE390E0298DFC0120834D
:1003300085E390E025E330E0F90120812460FC01B1
:10034000208380E090E0A0E2B1E489839A83AB83CC
:10035000BC832AEF3DEE4BE650E469817A818B81C4
:100360009C810E945D07DC01CB018D839E83AF835E
:10037000B88720E030E040E85FE36D817E818F81C7
:1003800098850E944C0688231CF481E0898791C0DF
:1003900020E030E04FE753E46D817E818F819885C6
:1003A0000E94590718160CF07BC020E030E04AE7A5
:1003B00054E469817A818B819C810E945006DC0122
:1003C000CB018A879B87AC87BD872DEC3CEC4CE248
:1003D00055E46A857B858C859D850E945D07DC01DF
:1003E000CB018E879F87A88BB98B20E030E040E857
:1003F0005FE36E857F85888999890E944C068823F2
:100400002CF481E090E09B8B8A8B3FC020E03FEF93
:100410004FE757E46E857F85888999890E9459073F
:1004200018164CF520E030E040E251E46A857B8507
:100430008C859D850E945D07DC01CB01BC01CD014F
:100440000E94B806DC01CB019B8B8A8B0FC084E134
:1004500091E09D8B8C8B8C899D890197F1F79D8B09
:100460008C8B8A899B8901979B8B8A8B8A899B8934
:10047000009769F724C06E857F85888999890E94D5
:10048000B806DC01CB019B8B8A8B8A899B899F8B69
:100490008E8B8E899F890197F1F79F8B8E8B0FC072
:1004A0006D817E818F8198850E94B806DC01CB0129
:1004B00089878985888F888D8A95F1F7888F85E36C
:1004C00090E025E330E0F90120812B7FFC012083BF
:1004D00069960FB6F894DEBF0FBECDBFDF91CF9106
:1004E0000895CF93DF93CDB7DEB78BE390E02FEF86
:1004F000FC01208385E390E025E330E0F9012081D1
:100500002E7FFC01208385E390E025E330E0F901B4
:1005100020812260FC01208385E390E025E330E028
:10052000F90120812460FC0120838AE390E02AE322
:1005300030E0F90120812F77FC0120838BE390E0EC
:100540002BE330E0F90120812F77FC0120830000AC
:100550008BE390E0FC0180818823D4F38AE390E070
:100560002AE330E0F90120812068FC01208385E343
:1005700090E025E330E0F90120812B7FFC0120830E
:10058000DF91CF910895CF93DF9300D0CDB7DEB741
:1005900089836A838981813021F48A8180680E94FD
:1005A00074018981823021F48A8180690E947401FA
:1005B0008981833029F48A818068885F0E94740170
:1005C0008981843029F48A818069885F0E9474015E
:1005D0000F900F90DF91CF910895CF93DF9300D0CC
:1005E0001F92CDB7DEB789837B836A8389810E949E
:1005F000770080E090E00F900F900F90DF91CF9107
:100600000895CF93DF93CDB7DEB760970FB6F89418
:10061000DEBF0FBECDBF83E290E00E94C5050E9401
:10062000400480E090E0A8ECB2E48B839C83AD832F
:10063000BE832DEC3CEC4CE255E46B817C818D81DA
:100640009E810E945D07DC01CB018F839887A9877B
:10065000BA8720E030E040E85FE36F8178858985E4
:100660009A850E944C0688232CF481E090E09C87B8
:100670008B873FC020E03FEF4FE757E46F817885DD
:1006800089859A850E94590718164CF520E030E0BC
:1006900040E251E46B817C818D819E810E945D07E7
:1006A000DC01CB01BC01CD010E94B806DC01CB010D
:1006B0009C878B870FC084E191E09E878D878D8515
:1006C0009E850197F1F79E878D878B859C85019785
:1006D0009C878B878B859C85009769F714C06F81F9
:1006E000788589859A850E94B806DC01CB019C87B4
:1006F0008B878B859C85988B8F878F8598890197B1
:10070000F1F7988B8F870E9440040E9457058CE771
:1007100090E00E9439050E940206882F90E09A839B
:10072000898389810E94E80589819A818B319105AD
:1007300019F40E94570533C089819A818C3591053F
:1007400019F40E9425052BC089819A818C37910567
:1007500019F40E942F0523C08981882F90E0292F4A
:100760002F938F938A818F9389818F9388EF90E065
:10077000892F8F9388EF90E08F938EE690E0892FFA
:100780008F938EE690E08F930E94C0078DB79EB73F
:1007900008960FB6F894DEBF0FBECDBFBCCFBBCF5F
:1007A000CF93DF931F92CDB7DEB789838BE390E0C1
:1007B0002BE330E0F90120812F7BFC0120838BE3C8
:1007C00090E02BE330E0F90120812F7DFC012083B4
:1007D0008BE390E02BE330E0F90120812F77FC01DF
:1007E00020830000000088E390E02981FC01208341
:1007F000000000008BE390E02BE330E0F901208162
:100800002068FC01208300000F90DF91CF910895B4
:10081000CF93DF931F92CDB7DEB789838BE390E050
:100820002BE330E0F90120812F7BFC0120838BE357
:1008300090E02BE330E0F90120812062FC0120836D
:100840008BE390E02BE330E0F90120812F77FC016E
:1008500020830000000088E390E02981FC012083D0
:10086000000000008BE390E02BE330E0F9012081F1
:100870002068FC01208300000F90DF91CF91089544
:10088000CF93DF93CDB7DEB787E390E02FEFFC0186
:1008900020838AE390E02AE330E0F901208120649C
:1008A000FC0120838AE390E02AE330E0F901208113
:1008B0002068FC0120838AE390E02AE330E0F9011C
:1008C00020812062FC0120838EEA0E94D00381EA0D
:1008D0000E94D0038AED0E94D00382E10E94D003DF
:1008E00088EC0E94D00388EA0E94D0038FE30E9424
:1008F000D00385ED0E94D00380E80E94D00381E8F8
:100900000E94D0038FEF0E94D00389ED0E94D00394
:1009100082E20E94D00380E20E94D00380E00E9425
:10092000D0038BED0E94D00380E30E94D0038DEAB8
:100930000E94D00380E00E94D00384EA0E94D0038A
:1009400086EA0E94D0038FEA0E94D003DF91CF9104
:100950000895CF93DF9300D0CDB7DEB789836A8344
:1009600089818093D8028A818093D90281E20E9492
:10097000D00389818A5F0E94D00389E70E94D00357
:1009800082E20E94D0038A810E94D00386E00E9406
:10099000D0030F900F90DF91CF910895CF93DF9305
:1009A000CDB7DEB78091D9028F5F8093D902809155
:1009B000D902873010F01092D9028091D902682FA5
:1009C00080E00E94A904DF91CF910895CF93DF9337
:1009D00000D01F92CDB7DEB78B838B8180528B8383
:1009E0008091D8028A5F8093D8028091D80286369F
:1009F00010F00E94CE041A82198219C08B81282F10
:100A000030E0C901880F991F880F991F820F931F2B
:100A100029813A81820F931F855F9E4FFC0180815F
:100A20000E94080489819A8101969A838983898129
:100A30009A818530910514F380E00E9408040F909C
:100A40000F900F90DF91CF910895CF93DF93CDB7A3
:100A5000DEB787EA0E94D003DF91CF910895CF934C
:100A6000DF93CDB7DEB786EA0E94D003DF91CF9146
:100A70000895CF93DF9300D0CDB7DEB79A838983F3
:100A80000BC089819A819C012F5F3F4F3A83298354
:100A9000FC0180810E94E60489819A81FC018081A9
:100AA000882379F70F900F90DF91CF910895CF931E
:100AB000DF9300D0CDB7DEB71092D8021092D902E2
:100AC0008EEA0E94D00381E20E94D00381E00E945E
:100AD000D0038EE70E94D00382E20E94D00380E020
:100AE0000E94D00387E00E94D00380E40E94D003DC
:100AF0001A82198208C080E00E94080489819A81C4
:100B000001969A83898389819A81803F23E09207A5
:100B100094F381E20E94D00386E00E94D00389E72B
:100B20000E94D00382E20E94D00380E00E94D003A2
:100B300086E00E94D0038CE70E94D0038FEA0E94D7
:100B4000D0030F900F90DF91CF910895CF93DF9353
:100B500000D01F92CDB7DEB789837B836A838981FA
:100B60008D3019F089818A3029F40E94CE0480E00A
:100B700090E005C089810E94E60480E090E00F903B
:100B80000F900F90DF91CF910895CF93DF9300D016
:100B9000CDB7DEB79A83898380E490E029813A81DA
:100BA000232F3327FC01208389E290E02981FC0177
:100BB00020838AE290E028E1FC01208380E490E039
:100BC00026E8FC0120830F900F90DF91CF910895CC
:100BD000CF93DF931F92CDB7DEB7898300008BE2FE
:100BE00090E0FC018081882F90E080729927009727
:100BF000B1F38CE290E02981FC0120830F90DF911A
:100C0000CF910895CF93DF93CDB7DEB700008BE28D
:100C100090E0FC0180818823D4F78CE290E0FC0115
:100C20008081DF91CF910895CF93DF9300D0CDB72E
:100C3000DEB79A8389830BC089819A81FC01808108
:100C40000E94E80589819A8101969A838983898126
:100C50009A81FC018081882379F70F900F90DF91B2
:100C6000CF910895CF93DF9300D01F92CDB7DEB719
:100C700089837B836A8389818A3019F48DE00E949D
:100C8000E80589810E94E80580E090E00F900F90D0
:100C90000F90DF91CF91089597D008F481E00895E7
:100CA0000CD0CDC0C5D040F0BCD030F021F45F3FB7
:100CB00019F0AEC05111F7C0B1C0D2D098F399234A
:100CC000C9F35523B1F3951B550BBB27AA27621710
:100CD0007307840738F09F5F5F4F220F331F441F55
:100CE000AA1FA9F333D00E2E3AF0E0E830D091508D
:100CF0005040E695001CCAF729D0FE2F27D0660F7A
:100D0000771F881FBB1F261737074807AB07B0E8B8
:100D100009F0BB0B802DBF01FF2793585F4F2AF0CE
:100D20009E3F510568F074C0BEC05F3FECF3983E33
:100D3000DCF3869577956795B795F7959F5FC9F72B
:100D4000880F911D9695879597F90895E1E0660FB4
:100D5000771F881FBB1F621773078407BA0720F02D
:100D6000621B730B840BBA0BEE1F88F7E095089596
:100D70007FD088F09F5790F0B92F9927B751A0F0F6
:100D8000D1F0660F771F881F991F1AF0BA95C9F71F
:100D900012C0B13081F086D0B1E0089583C0672FD2
:100DA000782F8827B85F39F0B93FCCF386957795CF
:100DB0006795B395D9F73EF49095809570956195B8
:100DC0007F4F8F4F9F4F0895990F0008550FAA0B23
:100DD000E0E8FEEF16161706E807F907C0F012164E
:100DE0001306E407F50798F0621B730B840B950B51
:100DF00039F40A2661F0232B242B252B21F40895A6
:100E00000A2609F4A140A6958FEF811D811D089542
:100E100097F99F6780E870E060E008959FEF80ECAD
:100E2000089500240A941616170618060906089550
:100E300000240A9412161306140605060895092EB6
:100E40000394000C11F4882352F0BB0F40F4BF2B25
:100E500011F460FF04C06F5F7F4F8F4F9F4F089565
:100E600057FD9058440F551F59F05F3F71F047955B
:100E7000880F97FB991F61F09F3F79F08795089540
:100E8000121613061406551FF2CF4695F1DF08C05F
:100E9000161617061806991FF1CF8695710561057C
:100EA00008940895E894BB2766277727CB0197F924
:100EB00008958ADF08F48FEF08950BD0C0CFB1DF1B
:100EC00028F0B6DF18F0952309F0A2CFA7CF1124A0
:100ED000EACFC6DFA0F3959FD1F3950F50E0551FE1
:100EE000629FF001729FBB27F00DB11D639FAA277F
:100EF000F00DB11DAA1F649F6627B00DA11D661FCE
:100F0000829F2227B00DA11D621F739FB00DA11DEE
:100F1000621F839FA00D611D221F749F3327A00DA8
:100F2000611D231F849F600D211D822F762F6A2F44
:100F300011249F5750408AF0E1F088234AF0EE0FC9
:100F4000FF1FBB1F661F771F881F91505040A9F7D6
:100F50009E3F510570F05CCFA6CF5F3FECF3983E0B
:100F6000DCF3869577956795B795F795E7959F5F3D
:100F7000C1F7FE2B880F911D9695879597F90895D7
:100F8000A0E0B0E0E6ECF7E00C945A0AAE01475F4F
:100F90005F4F6F8178858D819E810E94D207E2E04C
:100FA0000C94760AACE0B0E0E8EDF7E00C944A0A65
:100FB0007C016B018A01FC0117821682838181FF0B
:100FC000BDC1CE0101964C01F7019381F60193FD5D
:100FD000859193FF81916F01882309F4ABC185321C
:100FE00039F493FD859193FF81916F01853229F446
:100FF000B70190E00E94BA09E7CF512C312C20E0D4
:101000002032A0F48B3269F030F4803259F0833210
:1010100069F420612CC08D3239F0803339F42160BD
:1010200026C02260246023C0286021C027FD27C07D
:1010300030ED380F3A3078F426FF06C0FAE05F9EB4
:10104000300D1124532E13C08AE0389E300D112428
:10105000332E20620CC08E3221F426FD6BC1206439
:1010600006C08C3611F4206802C0883641F4F601BF
:1010700093FD859193FF81916F018111C1CF982FCD
:101080009F7D9554933028F40C5F1F4FFFE3F98345
:101090000DC0833631F0833771F0833509F05BC0C2
:1010A00022C0F801808189830E5F1F4F442443943E
:1010B000512C540115C03801F2E06F0E711CF8017B
:1010C000A080B18026FF03C0652D70E002C06FEFE5
:1010D0007FEFC5012C870E94AF092C0183012C856D
:1010E0002F77222E17C03801F2E06F0E711CF80125
:1010F000A080B18026FF03C0652D70E002C06FEFB5
:101100007FEFC5012C870E94A4092C012C85206843
:10111000222E830123FC1BC0832D90E04816590624
:10112000B0F4B70180E290E00E94BA093A94F4CF9B
:10113000F50127FC859127FE81915F01B70190E0C1
:101140000E94BA0931103A94F1E04F1A5108411443
:10115000510471F7E5C0843611F0893639F5F8018C
:1011600027FF07C060817181828193810C5F1F4FCF
:1011700008C060817181882777FD8095982F0E5F68
:101180001F4F2F76B22E97FF09C0909580957095CE
:1011900061957F4F8F4F9F4F2068B22E2AE030E03D
:1011A000A4010E94EC09A82EA81844C0853729F490
:1011B0002F7EB22E2AE030E025C0F22FF97FBF2E1D
:1011C0008F36C1F018F4883579F0B4C0803719F043
:1011D000883721F0AFC02F2F2061B22EB4FE0DC092
:1011E0008B2D8460B82E09C024FF0AC09F2F966003
:1011F000B92E06C028E030E005C020E130E002C092
:1012000020E132E0F801B7FE07C060817181828180
:1012100093810C5F1F4F06C06081718180E090E078
:101220000E5F1F4FA4010E94EC09A82EA818FB2DE9
:10123000FF77BF2EB6FE0BC02B2D2E7FA51450F4CA
:10124000B4FE0AC0B2FC08C02B2D2E7E05C07A2C3D
:101250002B2D03C07A2C01C0752C24FF0DC0FE017C
:10126000EA0DF11D8081803311F4297E09C022FF2F
:1012700006C07394739404C0822F867809F0739427
:1012800023FD13C020FF06C05A2C731418F4530C0E
:101290005718732C731468F4B70180E290E02C8720
:1012A0000E94BA0973942C85F5CF731410F4371883
:1012B00001C0312C24FF12C0B70180E390E02C87DD
:1012C0000E94BA092C8522FF17C021FF03C088E5C0
:1012D00090E002C088E790E0B7010CC0822F8678CA
:1012E00059F021FD02C080E201C08BE227FD8DE2B2
:1012F000B70190E00E94BA09A51438F4B70180E361
:1013000090E00E94BA095A94F7CFAA94F401EA0D2A
:10131000F11D8081B70190E00E94BA09A110F5CFBC
:10132000332009F451CEB70180E290E00E94BA095F
:101330003A94F6CFF7018681978102C08FEF9FEF35
:101340002C96E2E10C94660AFC0105906150704015
:101350000110D8F7809590958E0F9F1F0895FC017E
:101360006150704001900110D8F7809590958E0FD4
:101370009F1F08950F931F93CF93DF93182F092F6B
:10138000EB018B8181FD03C08FEF9FEF20C082FFB7
:1013900010C04E815F812C813D81421753077CF440
:1013A000E881F9819F012F5F3F4F398328831083A4
:1013B00006C0E885F985812F0995892B29F72E81AB
:1013C0003F812F5F3F4F3F832E83812F902FDF91EF
:1013D000CF911F910F910895FA01AA27283051F15A
:1013E000203181F1E8946F936E7F6E5F7F4F8F4F56
:1013F0009F4FAF4FB1E03ED0B4E03CD0670F781FB5
:10140000891F9A1FA11D680F791F8A1F911DA11D99
:101410006A0F711D811D911DA11D20D009F46894D2
:101420003F912AE0269F11243019305D3193DEF67A
:10143000CF010895462F4770405D4193B3E00FD030
:10144000C9F7F6CF462F4F70405D4A3318F0495D1B
:1014500031FD4052419302D0A9F7EACFB4E0A695FE
:101460009795879577956795BA95C9F70097610520
:10147000710508959B01AC010A2E06945795479576
:1014800037952795BA95C9F7620F731F841F951F6B
:10149000A01D08952F923F924F925F926F927F927C
:1014A0008F929F92AF92BF92CF92DF92EF92FF9274
:1014B0000F931F93CF93DF93CDB7DEB7CA1BDB0B20
:1014C0000FB6F894DEBF0FBECDBF09942A883988C5
:1014D00048885F846E847D848C849B84AA84B984CC
:1014E000C884DF80EE80FD800C811B81AA81B981D8
:1014F000CE0FD11D0FB6F894DEBF0FBECDBFED01EC
:061500000895F894FFCFEE
:10150600000000020000000032060000000000009B
:10151600000200000000A6050000000068656C6C73
:101526006F20746869732069732061207269646929
:1015360063756C6F75736C79206C6F6E67206C6F5A
:101546006E67207465787420737472696E672120E3
:10155600656E6A6F792069742021206F6E6C792020
:10156600666F722074657374696E6720746865208F
:101576006C696E652063686172616374657220616F
:101586006C69676E6D656E742E2049206C6F76658A
:1015960020796F7521212100696E7075743A2030AB
:1015A6007825782C20272563270A000000000000F4
:1015B60000002F00000007000700147F147F14248A
:1015C6002A7F2A12616608334336495522500005A0
:1015D600030000001C2241000041221C0014083EAA
:1015E600081408083E0808000050300010101010BB
:1015F60010006060000020100804023E5149453E7C
:1016060000427F400042615149462141454B311815
:1016160014127F1027454545393C4A494930017126
:101626000905033649494936064949291E00363611
:101636000000005636000008142241001414141449
:101646001400412214080201510906324959513E3B
:101656007E1111117E7F494949363E414141227F23
:101666004141221C7F494949417F090909013E41FF
:1016760049497A7F0808087F00417F4100204041A0
:101686003F017F081422417F404040407F020C0208
:101696007F7F0408107F3E4141413E7F09090906CC
:1016A6003E4151215E7F0919294646494949310182
:1016B600017F01013F4040403F1F2040201F3F4027
:1016C60038403F63140814630708700807615149DE
:1016D6004543007F414100552A552A550041417F27
:1016E60000040201020440404040400001020400A0
:1016F60020545454787F484444383844444420386D
:101706004444487F3854545418087E0901020C5248
:1017160052523E7F0804047800447D400020404435
:101726003D007F1028440000417F40007C041804DF
:10173600787C0804047838444444387C141414082B
:10174600081414187C7C08040408485454542004D3
:101756003F4440203C4040207C1C2040201C3C4014
:1017660030403C44281028440C5050503C446454AB
:081776004C44000609090600BD
:00000001FF
